{
	"demo.sol": {
		"Strings": {
			"abi": [
				{
					"inputs": [
						{
							"internalType": "string",
							"name": "str1",
							"type": "string"
						},
						{
							"internalType": "string",
							"name": "str2",
							"type": "string"
						}
					],
					"name": "concactenate",
					"outputs": [
						{
							"internalType": "string",
							"name": "",
							"type": "string"
						}
					],
					"stateMutability": "pure",
					"type": "function"
				},
				{
					"inputs": [
						{
							"internalType": "string",
							"name": "str",
							"type": "string"
						}
					],
					"name": "length",
					"outputs": [
						{
							"internalType": "uint256",
							"name": "",
							"type": "uint256"
						}
					],
					"stateMutability": "pure",
					"type": "function"
				}
			],
			"devdoc": {
				"kind": "dev",
				"methods": {},
				"version": 1
			},
			"evm": {
				"assembly": "    /* \"demo.sol\":73:753  contract Strings {\r... */\n  mstore(0x40, 0x80)\n  callvalue\n  dup1\n  iszero\n  tag_1\n  jumpi\n  0x00\n  dup1\n  revert\ntag_1:\n  pop\n  dataSize(sub_0)\n  dup1\n  dataOffset(sub_0)\n  0x00\n  codecopy\n  0x00\n  return\nstop\n\nsub_0: assembly {\n        /* \"demo.sol\":73:753  contract Strings {\r... */\n      mstore(0x40, 0x80)\n      callvalue\n      dup1\n      iszero\n      tag_1\n      jumpi\n      0x00\n      dup1\n      revert\n    tag_1:\n      pop\n      jumpi(tag_2, lt(calldatasize, 0x04))\n      shr(0xe0, calldataload(0x00))\n      dup1\n      0x436a66e7\n      eq\n      tag_3\n      jumpi\n      dup1\n      0xbd6df54c\n      eq\n      tag_4\n      jumpi\n    tag_2:\n      0x00\n      dup1\n      revert\n        /* \"demo.sol\":96:250  function length(string memory str) public pure returns (uint256) {\r... */\n    tag_3:\n      tag_5\n      0x04\n      dup1\n      calldatasize\n      sub\n      dup2\n      add\n      swap1\n      tag_6\n      swap2\n      swap1\n      tag_7\n      jump\t// in\n    tag_6:\n      tag_8\n      jump\t// in\n    tag_5:\n      mload(0x40)\n      tag_9\n      swap2\n      swap1\n      tag_10\n      jump\t// in\n    tag_9:\n      mload(0x40)\n      dup1\n      swap2\n      sub\n      swap1\n      return\n        /* \"demo.sol\":255:750  function concactenate(string memory str1, string memory str2) public pure returns(string memory){\r... */\n    tag_4:\n      tag_11\n      0x04\n      dup1\n      calldatasize\n      sub\n      dup2\n      add\n      swap1\n      tag_12\n      swap2\n      swap1\n      tag_13\n      jump\t// in\n    tag_12:\n      tag_14\n      jump\t// in\n    tag_11:\n      mload(0x40)\n      tag_15\n      swap2\n      swap1\n      tag_16\n      jump\t// in\n    tag_15:\n      mload(0x40)\n      dup1\n      swap2\n      sub\n      swap1\n      return\n        /* \"demo.sol\":96:250  function length(string memory str) public pure returns (uint256) {\r... */\n    tag_8:\n        /* \"demo.sol\":152:159  uint256 */\n      0x00\n        /* \"demo.sol\":173:194  bytes memory strbytes */\n      dup1\n        /* \"demo.sol\":203:206  str */\n      dup3\n        /* \"demo.sol\":173:207  bytes memory strbytes = bytes(str) */\n      swap1\n      pop\n        /* \"demo.sol\":226:234  strbytes */\n      dup1\n        /* \"demo.sol\":226:241  strbytes.length */\n      mload\n        /* \"demo.sol\":219:241  return strbytes.length */\n      swap2\n      pop\n      pop\n        /* \"demo.sol\":96:250  function length(string memory str) public pure returns (uint256) {\r... */\n      swap2\n      swap1\n      pop\n      jump\t// out\n        /* \"demo.sol\":255:750  function concactenate(string memory str1, string memory str2) public pure returns(string memory){\r... */\n    tag_14:\n        /* \"demo.sol\":337:350  string memory */\n      0x60\n        /* \"demo.sol\":354:376  bytes memory strbytes1 */\n      0x00\n        /* \"demo.sol\":385:389  str1 */\n      dup4\n        /* \"demo.sol\":354:390  bytes memory strbytes1 = bytes(str1) */\n      swap1\n      pop\n        /* \"demo.sol\":393:415  bytes memory strbytes2 */\n      0x00\n        /* \"demo.sol\":424:428  str2 */\n      dup4\n        /* \"demo.sol\":393:429  bytes memory strbytes2 = bytes(str2) */\n      swap1\n      pop\n        /* \"demo.sol\":432:449  string memory str */\n      0x00\n        /* \"demo.sol\":482:491  strbytes2 */\n      dup2\n        /* \"demo.sol\":482:498  strbytes2.length */\n      mload\n        /* \"demo.sol\":463:472  strbytes1 */\n      dup4\n        /* \"demo.sol\":463:479  strbytes1.length */\n      mload\n        /* \"demo.sol\":463:498  strbytes1.length + strbytes2.length */\n      tag_19\n      swap2\n      swap1\n      tag_20\n      jump\t// in\n    tag_19:\n        /* \"demo.sol\":452:499  new string(strbytes1.length + strbytes2.length) */\n      0xffffffffffffffff\n      dup2\n      gt\n      iszero\n      tag_21\n      jumpi\n      tag_22\n      tag_23\n      jump\t// in\n    tag_22:\n    tag_21:\n      mload(0x40)\n      swap1\n      dup1\n      dup3\n      mstore\n      dup1\n      0x1f\n      add\n      not(0x1f)\n      and\n      0x20\n      add\n      dup3\n      add\n      0x40\n      mstore\n      dup1\n      iszero\n      tag_24\n      jumpi\n      dup2\n      0x20\n      add\n      0x01\n      dup3\n      mul\n      dup1\n      calldatasize\n      dup4\n      calldatacopy\n      dup1\n      dup3\n      add\n      swap2\n      pop\n      pop\n      swap1\n      pop\n    tag_24:\n      pop\n        /* \"demo.sol\":432:499  string memory str = new string(strbytes1.length + strbytes2.length) */\n      swap1\n      pop\n        /* \"demo.sol\":502:523  bytes memory strbytes */\n      0x00\n        /* \"demo.sol\":532:535  str */\n      dup2\n        /* \"demo.sol\":502:536  bytes memory strbytes = bytes(str) */\n      swap1\n      pop\n        /* \"demo.sol\":541:550  uint256 k */\n      0x00\n        /* \"demo.sol\":561:570  uint256 i */\n      dup1\n        /* \"demo.sol\":557:636  for(uint256 i=0; i<strbytes1.length;i++){\r... */\n    tag_25:\n        /* \"demo.sol\":576:585  strbytes1 */\n      dup6\n        /* \"demo.sol\":576:592  strbytes1.length */\n      mload\n        /* \"demo.sol\":574:575  i */\n      dup2\n        /* \"demo.sol\":574:592  i<strbytes1.length */\n      lt\n        /* \"demo.sol\":557:636  for(uint256 i=0; i<strbytes1.length;i++){\r... */\n      iszero\n      tag_26\n      jumpi\n        /* \"demo.sol\":614:623  strbytes1 */\n      dup6\n        /* \"demo.sol\":624:625  i */\n      dup2\n        /* \"demo.sol\":614:626  strbytes1[i] */\n      dup2\n      mload\n      dup2\n      lt\n      tag_28\n      jumpi\n      tag_29\n      tag_30\n      jump\t// in\n    tag_29:\n    tag_28:\n      0x20\n      add\n      add\n      mload\n      0xf8\n      shr\n      0xf8\n      shl\n        /* \"demo.sol\":600:608  strbytes */\n      dup4\n        /* \"demo.sol\":609:610  k */\n      dup4\n        /* \"demo.sol\":600:611  strbytes[k] */\n      dup2\n      mload\n      dup2\n      lt\n      tag_31\n      jumpi\n      tag_32\n      tag_30\n      jump\t// in\n    tag_32:\n    tag_31:\n      0x20\n      add\n      add\n        /* \"demo.sol\":600:626  strbytes[k] = strbytes1[i] */\n      swap1\n      not(0xffffffffffffffffffffffffffffffffffffffffffffffffffffffffffffff)\n      and\n      swap1\n      dup2\n      0x00\n      byte\n      swap1\n      mstore8\n      pop\n        /* \"demo.sol\":629:632  k++ */\n      dup2\n      dup1\n      tag_33\n      swap1\n      tag_34\n      jump\t// in\n    tag_33:\n      swap3\n      pop\n      pop\n        /* \"demo.sol\":593:596  i++ */\n      dup1\n      dup1\n      tag_35\n      swap1\n      tag_34\n      jump\t// in\n    tag_35:\n      swap2\n      pop\n      pop\n        /* \"demo.sol\":557:636  for(uint256 i=0; i<strbytes1.length;i++){\r... */\n      jump(tag_25)\n    tag_26:\n      pop\n        /* \"demo.sol\":644:653  uint256 i */\n      0x00\n        /* \"demo.sol\":640:719  for(uint256 i=0; i<strbytes2.length;i++){\r... */\n    tag_36:\n        /* \"demo.sol\":659:668  strbytes2 */\n      dup5\n        /* \"demo.sol\":659:675  strbytes2.length */\n      mload\n        /* \"demo.sol\":657:658  i */\n      dup2\n        /* \"demo.sol\":657:675  i<strbytes2.length */\n      lt\n        /* \"demo.sol\":640:719  for(uint256 i=0; i<strbytes2.length;i++){\r... */\n      iszero\n      tag_37\n      jumpi\n        /* \"demo.sol\":697:706  strbytes1 */\n      dup6\n        /* \"demo.sol\":707:708  i */\n      dup2\n        /* \"demo.sol\":697:709  strbytes1[i] */\n      dup2\n      mload\n      dup2\n      lt\n      tag_39\n      jumpi\n      tag_40\n      tag_30\n      jump\t// in\n    tag_40:\n    tag_39:\n      0x20\n      add\n      add\n      mload\n      0xf8\n      shr\n      0xf8\n      shl\n        /* \"demo.sol\":683:691  strbytes */\n      dup4\n        /* \"demo.sol\":692:693  k */\n      dup4\n        /* \"demo.sol\":683:694  strbytes[k] */\n      dup2\n      mload\n      dup2\n      lt\n      tag_41\n      jumpi\n      tag_42\n      tag_30\n      jump\t// in\n    tag_42:\n    tag_41:\n      0x20\n      add\n      add\n        /* \"demo.sol\":683:709  strbytes[k] = strbytes1[i] */\n      swap1\n      not(0xffffffffffffffffffffffffffffffffffffffffffffffffffffffffffffff)\n      and\n      swap1\n      dup2\n      0x00\n      byte\n      swap1\n      mstore8\n      pop\n        /* \"demo.sol\":712:715  k++ */\n      dup2\n      dup1\n      tag_43\n      swap1\n      tag_34\n      jump\t// in\n    tag_43:\n      swap3\n      pop\n      pop\n        /* \"demo.sol\":676:679  i++ */\n      dup1\n      dup1\n      tag_44\n      swap1\n      tag_34\n      jump\t// in\n    tag_44:\n      swap2\n      pop\n      pop\n        /* \"demo.sol\":640:719  for(uint256 i=0; i<strbytes2.length;i++){\r... */\n      jump(tag_36)\n    tag_37:\n      pop\n        /* \"demo.sol\":735:743  strbytes */\n      dup2\n        /* \"demo.sol\":721:744  return string(strbytes) */\n      swap6\n      pop\n      pop\n      pop\n      pop\n      pop\n      pop\n        /* \"demo.sol\":255:750  function concactenate(string memory str1, string memory str2) public pure returns(string memory){\r... */\n      swap3\n      swap2\n      pop\n      pop\n      jump\t// out\n        /* \"#utility.yul\":7:419   */\n    tag_46:\n        /* \"#utility.yul\":85:90   */\n      0x00\n        /* \"#utility.yul\":110:176   */\n      tag_48\n        /* \"#utility.yul\":126:175   */\n      tag_49\n        /* \"#utility.yul\":168:174   */\n      dup5\n        /* \"#utility.yul\":126:175   */\n      tag_50\n      jump\t// in\n    tag_49:\n        /* \"#utility.yul\":110:176   */\n      tag_51\n      jump\t// in\n    tag_48:\n        /* \"#utility.yul\":101:176   */\n      swap1\n      pop\n        /* \"#utility.yul\":199:205   */\n      dup3\n        /* \"#utility.yul\":192:197   */\n      dup2\n        /* \"#utility.yul\":185:206   */\n      mstore\n        /* \"#utility.yul\":237:241   */\n      0x20\n        /* \"#utility.yul\":230:235   */\n      dup2\n        /* \"#utility.yul\":226:242   */\n      add\n        /* \"#utility.yul\":275:278   */\n      dup5\n        /* \"#utility.yul\":266:272   */\n      dup5\n        /* \"#utility.yul\":261:264   */\n      dup5\n        /* \"#utility.yul\":257:273   */\n      add\n        /* \"#utility.yul\":254:279   */\n      gt\n        /* \"#utility.yul\":251:363   */\n      iszero\n      tag_52\n      jumpi\n        /* \"#utility.yul\":282:361   */\n      tag_53\n      tag_54\n      jump\t// in\n    tag_53:\n        /* \"#utility.yul\":251:363   */\n    tag_52:\n        /* \"#utility.yul\":372:413   */\n      tag_55\n        /* \"#utility.yul\":406:412   */\n      dup5\n        /* \"#utility.yul\":401:404   */\n      dup3\n        /* \"#utility.yul\":396:399   */\n      dup6\n        /* \"#utility.yul\":372:413   */\n      tag_56\n      jump\t// in\n    tag_55:\n        /* \"#utility.yul\":91:419   */\n      pop\n        /* \"#utility.yul\":7:419   */\n      swap4\n      swap3\n      pop\n      pop\n      pop\n      jump\t// out\n        /* \"#utility.yul\":439:779   */\n    tag_57:\n        /* \"#utility.yul\":495:500   */\n      0x00\n        /* \"#utility.yul\":544:547   */\n      dup3\n        /* \"#utility.yul\":537:541   */\n      0x1f\n        /* \"#utility.yul\":529:535   */\n      dup4\n        /* \"#utility.yul\":525:542   */\n      add\n        /* \"#utility.yul\":521:548   */\n      slt\n        /* \"#utility.yul\":511:633   */\n      tag_59\n      jumpi\n        /* \"#utility.yul\":552:631   */\n      tag_60\n      tag_61\n      jump\t// in\n    tag_60:\n        /* \"#utility.yul\":511:633   */\n    tag_59:\n        /* \"#utility.yul\":669:675   */\n      dup2\n        /* \"#utility.yul\":656:676   */\n      calldataload\n        /* \"#utility.yul\":694:773   */\n      tag_62\n        /* \"#utility.yul\":769:772   */\n      dup5\n        /* \"#utility.yul\":761:767   */\n      dup3\n        /* \"#utility.yul\":754:758   */\n      0x20\n        /* \"#utility.yul\":746:752   */\n      dup7\n        /* \"#utility.yul\":742:759   */\n      add\n        /* \"#utility.yul\":694:773   */\n      tag_46\n      jump\t// in\n    tag_62:\n        /* \"#utility.yul\":685:773   */\n      swap2\n      pop\n        /* \"#utility.yul\":501:779   */\n      pop\n        /* \"#utility.yul\":439:779   */\n      swap3\n      swap2\n      pop\n      pop\n      jump\t// out\n        /* \"#utility.yul\":785:1294   */\n    tag_7:\n        /* \"#utility.yul\":854:860   */\n      0x00\n        /* \"#utility.yul\":903:905   */\n      0x20\n        /* \"#utility.yul\":891:900   */\n      dup3\n        /* \"#utility.yul\":882:889   */\n      dup5\n        /* \"#utility.yul\":878:901   */\n      sub\n        /* \"#utility.yul\":874:906   */\n      slt\n        /* \"#utility.yul\":871:990   */\n      iszero\n      tag_64\n      jumpi\n        /* \"#utility.yul\":909:988   */\n      tag_65\n      tag_66\n      jump\t// in\n    tag_65:\n        /* \"#utility.yul\":871:990   */\n    tag_64:\n        /* \"#utility.yul\":1057:1058   */\n      0x00\n        /* \"#utility.yul\":1046:1055   */\n      dup3\n        /* \"#utility.yul\":1042:1059   */\n      add\n        /* \"#utility.yul\":1029:1060   */\n      calldataload\n        /* \"#utility.yul\":1087:1105   */\n      0xffffffffffffffff\n        /* \"#utility.yul\":1079:1085   */\n      dup2\n        /* \"#utility.yul\":1076:1106   */\n      gt\n        /* \"#utility.yul\":1073:1190   */\n      iszero\n      tag_67\n      jumpi\n        /* \"#utility.yul\":1109:1188   */\n      tag_68\n      tag_69\n      jump\t// in\n    tag_68:\n        /* \"#utility.yul\":1073:1190   */\n    tag_67:\n        /* \"#utility.yul\":1214:1277   */\n      tag_70\n        /* \"#utility.yul\":1269:1276   */\n      dup5\n        /* \"#utility.yul\":1260:1266   */\n      dup3\n        /* \"#utility.yul\":1249:1258   */\n      dup6\n        /* \"#utility.yul\":1245:1267   */\n      add\n        /* \"#utility.yul\":1214:1277   */\n      tag_57\n      jump\t// in\n    tag_70:\n        /* \"#utility.yul\":1204:1277   */\n      swap2\n      pop\n        /* \"#utility.yul\":1000:1287   */\n      pop\n        /* \"#utility.yul\":785:1294   */\n      swap3\n      swap2\n      pop\n      pop\n      jump\t// out\n        /* \"#utility.yul\":1300:2134   */\n    tag_13:\n        /* \"#utility.yul\":1388:1394   */\n      0x00\n        /* \"#utility.yul\":1396:1402   */\n      dup1\n        /* \"#utility.yul\":1445:1447   */\n      0x40\n        /* \"#utility.yul\":1433:1442   */\n      dup4\n        /* \"#utility.yul\":1424:1431   */\n      dup6\n        /* \"#utility.yul\":1420:1443   */\n      sub\n        /* \"#utility.yul\":1416:1448   */\n      slt\n        /* \"#utility.yul\":1413:1532   */\n      iszero\n      tag_72\n      jumpi\n        /* \"#utility.yul\":1451:1530   */\n      tag_73\n      tag_66\n      jump\t// in\n    tag_73:\n        /* \"#utility.yul\":1413:1532   */\n    tag_72:\n        /* \"#utility.yul\":1599:1600   */\n      0x00\n        /* \"#utility.yul\":1588:1597   */\n      dup4\n        /* \"#utility.yul\":1584:1601   */\n      add\n        /* \"#utility.yul\":1571:1602   */\n      calldataload\n        /* \"#utility.yul\":1629:1647   */\n      0xffffffffffffffff\n        /* \"#utility.yul\":1621:1627   */\n      dup2\n        /* \"#utility.yul\":1618:1648   */\n      gt\n        /* \"#utility.yul\":1615:1732   */\n      iszero\n      tag_74\n      jumpi\n        /* \"#utility.yul\":1651:1730   */\n      tag_75\n      tag_69\n      jump\t// in\n    tag_75:\n        /* \"#utility.yul\":1615:1732   */\n    tag_74:\n        /* \"#utility.yul\":1756:1819   */\n      tag_76\n        /* \"#utility.yul\":1811:1818   */\n      dup6\n        /* \"#utility.yul\":1802:1808   */\n      dup3\n        /* \"#utility.yul\":1791:1800   */\n      dup7\n        /* \"#utility.yul\":1787:1809   */\n      add\n        /* \"#utility.yul\":1756:1819   */\n      tag_57\n      jump\t// in\n    tag_76:\n        /* \"#utility.yul\":1746:1819   */\n      swap3\n      pop\n        /* \"#utility.yul\":1542:1829   */\n      pop\n        /* \"#utility.yul\":1896:1898   */\n      0x20\n        /* \"#utility.yul\":1885:1894   */\n      dup4\n        /* \"#utility.yul\":1881:1899   */\n      add\n        /* \"#utility.yul\":1868:1900   */\n      calldataload\n        /* \"#utility.yul\":1927:1945   */\n      0xffffffffffffffff\n        /* \"#utility.yul\":1919:1925   */\n      dup2\n        /* \"#utility.yul\":1916:1946   */\n      gt\n        /* \"#utility.yul\":1913:2030   */\n      iszero\n      tag_77\n      jumpi\n        /* \"#utility.yul\":1949:2028   */\n      tag_78\n      tag_69\n      jump\t// in\n    tag_78:\n        /* \"#utility.yul\":1913:2030   */\n    tag_77:\n        /* \"#utility.yul\":2054:2117   */\n      tag_79\n        /* \"#utility.yul\":2109:2116   */\n      dup6\n        /* \"#utility.yul\":2100:2106   */\n      dup3\n        /* \"#utility.yul\":2089:2098   */\n      dup7\n        /* \"#utility.yul\":2085:2107   */\n      add\n        /* \"#utility.yul\":2054:2117   */\n      tag_57\n      jump\t// in\n    tag_79:\n        /* \"#utility.yul\":2044:2117   */\n      swap2\n      pop\n        /* \"#utility.yul\":1839:2127   */\n      pop\n        /* \"#utility.yul\":1300:2134   */\n      swap3\n      pop\n      swap3\n      swap1\n      pop\n      jump\t// out\n        /* \"#utility.yul\":2140:2504   */\n    tag_80:\n        /* \"#utility.yul\":2228:2231   */\n      0x00\n        /* \"#utility.yul\":2256:2295   */\n      tag_82\n        /* \"#utility.yul\":2289:2294   */\n      dup3\n        /* \"#utility.yul\":2256:2295   */\n      tag_83\n      jump\t// in\n    tag_82:\n        /* \"#utility.yul\":2311:2382   */\n      tag_84\n        /* \"#utility.yul\":2375:2381   */\n      dup2\n        /* \"#utility.yul\":2370:2373   */\n      dup6\n        /* \"#utility.yul\":2311:2382   */\n      tag_85\n      jump\t// in\n    tag_84:\n        /* \"#utility.yul\":2304:2382   */\n      swap4\n      pop\n        /* \"#utility.yul\":2391:2443   */\n      tag_86\n        /* \"#utility.yul\":2436:2442   */\n      dup2\n        /* \"#utility.yul\":2431:2434   */\n      dup6\n        /* \"#utility.yul\":2424:2428   */\n      0x20\n        /* \"#utility.yul\":2417:2422   */\n      dup7\n        /* \"#utility.yul\":2413:2429   */\n      add\n        /* \"#utility.yul\":2391:2443   */\n      tag_87\n      jump\t// in\n    tag_86:\n        /* \"#utility.yul\":2468:2497   */\n      tag_88\n        /* \"#utility.yul\":2490:2496   */\n      dup2\n        /* \"#utility.yul\":2468:2497   */\n      tag_89\n      jump\t// in\n    tag_88:\n        /* \"#utility.yul\":2463:2466   */\n      dup5\n        /* \"#utility.yul\":2459:2498   */\n      add\n        /* \"#utility.yul\":2452:2498   */\n      swap2\n      pop\n        /* \"#utility.yul\":2232:2504   */\n      pop\n        /* \"#utility.yul\":2140:2504   */\n      swap3\n      swap2\n      pop\n      pop\n      jump\t// out\n        /* \"#utility.yul\":2510:2628   */\n    tag_90:\n        /* \"#utility.yul\":2597:2621   */\n      tag_92\n        /* \"#utility.yul\":2615:2620   */\n      dup2\n        /* \"#utility.yul\":2597:2621   */\n      tag_93\n      jump\t// in\n    tag_92:\n        /* \"#utility.yul\":2592:2595   */\n      dup3\n        /* \"#utility.yul\":2585:2622   */\n      mstore\n        /* \"#utility.yul\":2510:2628   */\n      pop\n      pop\n      jump\t// out\n        /* \"#utility.yul\":2634:2947   */\n    tag_16:\n        /* \"#utility.yul\":2747:2751   */\n      0x00\n        /* \"#utility.yul\":2785:2787   */\n      0x20\n        /* \"#utility.yul\":2774:2783   */\n      dup3\n        /* \"#utility.yul\":2770:2788   */\n      add\n        /* \"#utility.yul\":2762:2788   */\n      swap1\n      pop\n        /* \"#utility.yul\":2834:2843   */\n      dup2\n        /* \"#utility.yul\":2828:2832   */\n      dup2\n        /* \"#utility.yul\":2824:2844   */\n      sub\n        /* \"#utility.yul\":2820:2821   */\n      0x00\n        /* \"#utility.yul\":2809:2818   */\n      dup4\n        /* \"#utility.yul\":2805:2822   */\n      add\n        /* \"#utility.yul\":2798:2845   */\n      mstore\n        /* \"#utility.yul\":2862:2940   */\n      tag_95\n        /* \"#utility.yul\":2935:2939   */\n      dup2\n        /* \"#utility.yul\":2926:2932   */\n      dup5\n        /* \"#utility.yul\":2862:2940   */\n      tag_80\n      jump\t// in\n    tag_95:\n        /* \"#utility.yul\":2854:2940   */\n      swap1\n      pop\n        /* \"#utility.yul\":2634:2947   */\n      swap3\n      swap2\n      pop\n      pop\n      jump\t// out\n        /* \"#utility.yul\":2953:3175   */\n    tag_10:\n        /* \"#utility.yul\":3046:3050   */\n      0x00\n        /* \"#utility.yul\":3084:3086   */\n      0x20\n        /* \"#utility.yul\":3073:3082   */\n      dup3\n        /* \"#utility.yul\":3069:3087   */\n      add\n        /* \"#utility.yul\":3061:3087   */\n      swap1\n      pop\n        /* \"#utility.yul\":3097:3168   */\n      tag_97\n        /* \"#utility.yul\":3165:3166   */\n      0x00\n        /* \"#utility.yul\":3154:3163   */\n      dup4\n        /* \"#utility.yul\":3150:3167   */\n      add\n        /* \"#utility.yul\":3141:3147   */\n      dup5\n        /* \"#utility.yul\":3097:3168   */\n      tag_90\n      jump\t// in\n    tag_97:\n        /* \"#utility.yul\":2953:3175   */\n      swap3\n      swap2\n      pop\n      pop\n      jump\t// out\n        /* \"#utility.yul\":3181:3310   */\n    tag_51:\n        /* \"#utility.yul\":3215:3221   */\n      0x00\n        /* \"#utility.yul\":3242:3262   */\n      tag_99\n      tag_100\n      jump\t// in\n    tag_99:\n        /* \"#utility.yul\":3232:3262   */\n      swap1\n      pop\n        /* \"#utility.yul\":3271:3304   */\n      tag_101\n        /* \"#utility.yul\":3299:3303   */\n      dup3\n        /* \"#utility.yul\":3291:3297   */\n      dup3\n        /* \"#utility.yul\":3271:3304   */\n      tag_102\n      jump\t// in\n    tag_101:\n        /* \"#utility.yul\":3181:3310   */\n      swap2\n      swap1\n      pop\n      jump\t// out\n        /* \"#utility.yul\":3316:3391   */\n    tag_100:\n        /* \"#utility.yul\":3349:3355   */\n      0x00\n        /* \"#utility.yul\":3382:3384   */\n      0x40\n        /* \"#utility.yul\":3376:3385   */\n      mload\n        /* \"#utility.yul\":3366:3385   */\n      swap1\n      pop\n        /* \"#utility.yul\":3316:3391   */\n      swap1\n      jump\t// out\n        /* \"#utility.yul\":3397:3705   */\n    tag_50:\n        /* \"#utility.yul\":3459:3463   */\n      0x00\n        /* \"#utility.yul\":3549:3567   */\n      0xffffffffffffffff\n        /* \"#utility.yul\":3541:3547   */\n      dup3\n        /* \"#utility.yul\":3538:3568   */\n      gt\n        /* \"#utility.yul\":3535:3591   */\n      iszero\n      tag_105\n      jumpi\n        /* \"#utility.yul\":3571:3589   */\n      tag_106\n      tag_23\n      jump\t// in\n    tag_106:\n        /* \"#utility.yul\":3535:3591   */\n    tag_105:\n        /* \"#utility.yul\":3609:3638   */\n      tag_107\n        /* \"#utility.yul\":3631:3637   */\n      dup3\n        /* \"#utility.yul\":3609:3638   */\n      tag_89\n      jump\t// in\n    tag_107:\n        /* \"#utility.yul\":3601:3638   */\n      swap1\n      pop\n        /* \"#utility.yul\":3693:3697   */\n      0x20\n        /* \"#utility.yul\":3687:3691   */\n      dup2\n        /* \"#utility.yul\":3683:3698   */\n      add\n        /* \"#utility.yul\":3675:3698   */\n      swap1\n      pop\n        /* \"#utility.yul\":3397:3705   */\n      swap2\n      swap1\n      pop\n      jump\t// out\n        /* \"#utility.yul\":3711:3810   */\n    tag_83:\n        /* \"#utility.yul\":3763:3769   */\n      0x00\n        /* \"#utility.yul\":3797:3802   */\n      dup2\n        /* \"#utility.yul\":3791:3803   */\n      mload\n        /* \"#utility.yul\":3781:3803   */\n      swap1\n      pop\n        /* \"#utility.yul\":3711:3810   */\n      swap2\n      swap1\n      pop\n      jump\t// out\n        /* \"#utility.yul\":3816:3985   */\n    tag_85:\n        /* \"#utility.yul\":3900:3911   */\n      0x00\n        /* \"#utility.yul\":3934:3940   */\n      dup3\n        /* \"#utility.yul\":3929:3932   */\n      dup3\n        /* \"#utility.yul\":3922:3941   */\n      mstore\n        /* \"#utility.yul\":3974:3978   */\n      0x20\n        /* \"#utility.yul\":3969:3972   */\n      dup3\n        /* \"#utility.yul\":3965:3979   */\n      add\n        /* \"#utility.yul\":3950:3979   */\n      swap1\n      pop\n        /* \"#utility.yul\":3816:3985   */\n      swap3\n      swap2\n      pop\n      pop\n      jump\t// out\n        /* \"#utility.yul\":3991:4296   */\n    tag_20:\n        /* \"#utility.yul\":4031:4034   */\n      0x00\n        /* \"#utility.yul\":4050:4070   */\n      tag_111\n        /* \"#utility.yul\":4068:4069   */\n      dup3\n        /* \"#utility.yul\":4050:4070   */\n      tag_93\n      jump\t// in\n    tag_111:\n        /* \"#utility.yul\":4045:4070   */\n      swap2\n      pop\n        /* \"#utility.yul\":4084:4104   */\n      tag_112\n        /* \"#utility.yul\":4102:4103   */\n      dup4\n        /* \"#utility.yul\":4084:4104   */\n      tag_93\n      jump\t// in\n    tag_112:\n        /* \"#utility.yul\":4079:4104   */\n      swap3\n      pop\n        /* \"#utility.yul\":4238:4239   */\n      dup3\n        /* \"#utility.yul\":4170:4236   */\n      0xffffffffffffffffffffffffffffffffffffffffffffffffffffffffffffffff\n        /* \"#utility.yul\":4166:4240   */\n      sub\n        /* \"#utility.yul\":4163:4164   */\n      dup3\n        /* \"#utility.yul\":4160:4241   */\n      gt\n        /* \"#utility.yul\":4157:4264   */\n      iszero\n      tag_113\n      jumpi\n        /* \"#utility.yul\":4244:4262   */\n      tag_114\n      tag_115\n      jump\t// in\n    tag_114:\n        /* \"#utility.yul\":4157:4264   */\n    tag_113:\n        /* \"#utility.yul\":4288:4289   */\n      dup3\n        /* \"#utility.yul\":4285:4286   */\n      dup3\n        /* \"#utility.yul\":4281:4290   */\n      add\n        /* \"#utility.yul\":4274:4290   */\n      swap1\n      pop\n        /* \"#utility.yul\":3991:4296   */\n      swap3\n      swap2\n      pop\n      pop\n      jump\t// out\n        /* \"#utility.yul\":4302:4379   */\n    tag_93:\n        /* \"#utility.yul\":4339:4346   */\n      0x00\n        /* \"#utility.yul\":4368:4373   */\n      dup2\n        /* \"#utility.yul\":4357:4373   */\n      swap1\n      pop\n        /* \"#utility.yul\":4302:4379   */\n      swap2\n      swap1\n      pop\n      jump\t// out\n        /* \"#utility.yul\":4385:4539   */\n    tag_56:\n        /* \"#utility.yul\":4469:4475   */\n      dup3\n        /* \"#utility.yul\":4464:4467   */\n      dup2\n        /* \"#utility.yul\":4459:4462   */\n      dup4\n        /* \"#utility.yul\":4446:4476   */\n      calldatacopy\n        /* \"#utility.yul\":4531:4532   */\n      0x00\n        /* \"#utility.yul\":4522:4528   */\n      dup4\n        /* \"#utility.yul\":4517:4520   */\n      dup4\n        /* \"#utility.yul\":4513:4529   */\n      add\n        /* \"#utility.yul\":4506:4533   */\n      mstore\n        /* \"#utility.yul\":4385:4539   */\n      pop\n      pop\n      pop\n      jump\t// out\n        /* \"#utility.yul\":4545:4852   */\n    tag_87:\n        /* \"#utility.yul\":4613:4614   */\n      0x00\n        /* \"#utility.yul\":4623:4736   */\n    tag_119:\n        /* \"#utility.yul\":4637:4643   */\n      dup4\n        /* \"#utility.yul\":4634:4635   */\n      dup2\n        /* \"#utility.yul\":4631:4644   */\n      lt\n        /* \"#utility.yul\":4623:4736   */\n      iszero\n      tag_121\n      jumpi\n        /* \"#utility.yul\":4722:4723   */\n      dup1\n        /* \"#utility.yul\":4717:4720   */\n      dup3\n        /* \"#utility.yul\":4713:4724   */\n      add\n        /* \"#utility.yul\":4707:4725   */\n      mload\n        /* \"#utility.yul\":4703:4704   */\n      dup2\n        /* \"#utility.yul\":4698:4701   */\n      dup5\n        /* \"#utility.yul\":4694:4705   */\n      add\n        /* \"#utility.yul\":4687:4726   */\n      mstore\n        /* \"#utility.yul\":4659:4661   */\n      0x20\n        /* \"#utility.yul\":4656:4657   */\n      dup2\n        /* \"#utility.yul\":4652:4662   */\n      add\n        /* \"#utility.yul\":4647:4662   */\n      swap1\n      pop\n        /* \"#utility.yul\":4623:4736   */\n      jump(tag_119)\n    tag_121:\n        /* \"#utility.yul\":4754:4760   */\n      dup4\n        /* \"#utility.yul\":4751:4752   */\n      dup2\n        /* \"#utility.yul\":4748:4761   */\n      gt\n        /* \"#utility.yul\":4745:4846   */\n      iszero\n      tag_122\n      jumpi\n        /* \"#utility.yul\":4834:4835   */\n      0x00\n        /* \"#utility.yul\":4825:4831   */\n      dup5\n        /* \"#utility.yul\":4820:4823   */\n      dup5\n        /* \"#utility.yul\":4816:4832   */\n      add\n        /* \"#utility.yul\":4809:4836   */\n      mstore\n        /* \"#utility.yul\":4745:4846   */\n    tag_122:\n        /* \"#utility.yul\":4594:4852   */\n      pop\n        /* \"#utility.yul\":4545:4852   */\n      pop\n      pop\n      pop\n      jump\t// out\n        /* \"#utility.yul\":4858:5139   */\n    tag_102:\n        /* \"#utility.yul\":4941:4968   */\n      tag_124\n        /* \"#utility.yul\":4963:4967   */\n      dup3\n        /* \"#utility.yul\":4941:4968   */\n      tag_89\n      jump\t// in\n    tag_124:\n        /* \"#utility.yul\":4933:4939   */\n      dup2\n        /* \"#utility.yul\":4929:4969   */\n      add\n        /* \"#utility.yul\":5071:5077   */\n      dup2\n        /* \"#utility.yul\":5059:5069   */\n      dup2\n        /* \"#utility.yul\":5056:5078   */\n      lt\n        /* \"#utility.yul\":5035:5053   */\n      0xffffffffffffffff\n        /* \"#utility.yul\":5023:5033   */\n      dup3\n        /* \"#utility.yul\":5020:5054   */\n      gt\n        /* \"#utility.yul\":5017:5079   */\n      or\n        /* \"#utility.yul\":5014:5102   */\n      iszero\n      tag_125\n      jumpi\n        /* \"#utility.yul\":5082:5100   */\n      tag_126\n      tag_23\n      jump\t// in\n    tag_126:\n        /* \"#utility.yul\":5014:5102   */\n    tag_125:\n        /* \"#utility.yul\":5122:5132   */\n      dup1\n        /* \"#utility.yul\":5118:5120   */\n      0x40\n        /* \"#utility.yul\":5111:5133   */\n      mstore\n        /* \"#utility.yul\":4901:5139   */\n      pop\n        /* \"#utility.yul\":4858:5139   */\n      pop\n      pop\n      jump\t// out\n        /* \"#utility.yul\":5145:5378   */\n    tag_34:\n        /* \"#utility.yul\":5184:5187   */\n      0x00\n        /* \"#utility.yul\":5207:5231   */\n      tag_128\n        /* \"#utility.yul\":5225:5230   */\n      dup3\n        /* \"#utility.yul\":5207:5231   */\n      tag_93\n      jump\t// in\n    tag_128:\n        /* \"#utility.yul\":5198:5231   */\n      swap2\n      pop\n        /* \"#utility.yul\":5253:5319   */\n      0xffffffffffffffffffffffffffffffffffffffffffffffffffffffffffffffff\n        /* \"#utility.yul\":5246:5251   */\n      dup3\n        /* \"#utility.yul\":5243:5320   */\n      eq\n        /* \"#utility.yul\":5240:5343   */\n      iszero\n      tag_129\n      jumpi\n        /* \"#utility.yul\":5323:5341   */\n      tag_130\n      tag_115\n      jump\t// in\n    tag_130:\n        /* \"#utility.yul\":5240:5343   */\n    tag_129:\n        /* \"#utility.yul\":5370:5371   */\n      0x01\n        /* \"#utility.yul\":5363:5368   */\n      dup3\n        /* \"#utility.yul\":5359:5372   */\n      add\n        /* \"#utility.yul\":5352:5372   */\n      swap1\n      pop\n        /* \"#utility.yul\":5145:5378   */\n      swap2\n      swap1\n      pop\n      jump\t// out\n        /* \"#utility.yul\":5384:5564   */\n    tag_115:\n        /* \"#utility.yul\":5432:5509   */\n      0x4e487b7100000000000000000000000000000000000000000000000000000000\n        /* \"#utility.yul\":5429:5430   */\n      0x00\n        /* \"#utility.yul\":5422:5510   */\n      mstore\n        /* \"#utility.yul\":5529:5533   */\n      0x11\n        /* \"#utility.yul\":5526:5527   */\n      0x04\n        /* \"#utility.yul\":5519:5534   */\n      mstore\n        /* \"#utility.yul\":5553:5557   */\n      0x24\n        /* \"#utility.yul\":5550:5551   */\n      0x00\n        /* \"#utility.yul\":5543:5558   */\n      revert\n        /* \"#utility.yul\":5570:5750   */\n    tag_30:\n        /* \"#utility.yul\":5618:5695   */\n      0x4e487b7100000000000000000000000000000000000000000000000000000000\n        /* \"#utility.yul\":5615:5616   */\n      0x00\n        /* \"#utility.yul\":5608:5696   */\n      mstore\n        /* \"#utility.yul\":5715:5719   */\n      0x32\n        /* \"#utility.yul\":5712:5713   */\n      0x04\n        /* \"#utility.yul\":5705:5720   */\n      mstore\n        /* \"#utility.yul\":5739:5743   */\n      0x24\n        /* \"#utility.yul\":5736:5737   */\n      0x00\n        /* \"#utility.yul\":5729:5744   */\n      revert\n        /* \"#utility.yul\":5756:5936   */\n    tag_23:\n        /* \"#utility.yul\":5804:5881   */\n      0x4e487b7100000000000000000000000000000000000000000000000000000000\n        /* \"#utility.yul\":5801:5802   */\n      0x00\n        /* \"#utility.yul\":5794:5882   */\n      mstore\n        /* \"#utility.yul\":5901:5905   */\n      0x41\n        /* \"#utility.yul\":5898:5899   */\n      0x04\n        /* \"#utility.yul\":5891:5906   */\n      mstore\n        /* \"#utility.yul\":5925:5929   */\n      0x24\n        /* \"#utility.yul\":5922:5923   */\n      0x00\n        /* \"#utility.yul\":5915:5930   */\n      revert\n        /* \"#utility.yul\":5942:6059   */\n    tag_61:\n        /* \"#utility.yul\":6051:6052   */\n      0x00\n        /* \"#utility.yul\":6048:6049   */\n      dup1\n        /* \"#utility.yul\":6041:6053   */\n      revert\n        /* \"#utility.yul\":6065:6182   */\n    tag_54:\n        /* \"#utility.yul\":6174:6175   */\n      0x00\n        /* \"#utility.yul\":6171:6172   */\n      dup1\n        /* \"#utility.yul\":6164:6176   */\n      revert\n        /* \"#utility.yul\":6188:6305   */\n    tag_69:\n        /* \"#utility.yul\":6297:6298   */\n      0x00\n        /* \"#utility.yul\":6294:6295   */\n      dup1\n        /* \"#utility.yul\":6287:6299   */\n      revert\n        /* \"#utility.yul\":6311:6428   */\n    tag_66:\n        /* \"#utility.yul\":6420:6421   */\n      0x00\n        /* \"#utility.yul\":6417:6418   */\n      dup1\n        /* \"#utility.yul\":6410:6422   */\n      revert\n        /* \"#utility.yul\":6434:6536   */\n    tag_89:\n        /* \"#utility.yul\":6475:6481   */\n      0x00\n        /* \"#utility.yul\":6526:6528   */\n      0x1f\n        /* \"#utility.yul\":6522:6529   */\n      not\n        /* \"#utility.yul\":6517:6519   */\n      0x1f\n        /* \"#utility.yul\":6510:6515   */\n      dup4\n        /* \"#utility.yul\":6506:6520   */\n      add\n        /* \"#utility.yul\":6502:6530   */\n      and\n        /* \"#utility.yul\":6492:6530   */\n      swap1\n      pop\n        /* \"#utility.yul\":6434:6536   */\n      swap2\n      swap1\n      pop\n      jump\t// out\n\n    auxdata: 0xa2646970667358221220c84ce298e8a1fe3f03733f502ee6df3c3d9785f6d85223e6818e4e3c735c36b564736f6c63430008070033\n}\n",
				"bytecode": {
					"linkReferences": {},
					"object": "608060405234801561001057600080fd5b50610671806100206000396000f3fe608060405234801561001057600080fd5b50600436106100365760003560e01c8063436a66e71461003b578063bd6df54c1461006b575b600080fd5b610055600480360381019061005091906102b5565b61009b565b60405161006291906103e0565b60405180910390f35b610085600480360381019061008091906102fe565b6100ab565b60405161009291906103be565b60405180910390f35b6000808290508051915050919050565b6060600083905060008390506000815183516100c7919061046d565b67ffffffffffffffff8111156100e0576100df6105e7565b5b6040519080825280601f01601f1916602001820160405280156101125781602001600182028036833780820191505090505b50905060008190506000805b85518110156101a85785818151811061013a576101396105b8565b5b602001015160f81c60f81b838381518110610158576101576105b8565b5b60200101907effffffffffffffffffffffffffffffffffffffffffffffffffffffffffffff1916908160001a905350818061019290610540565b92505080806101a090610540565b91505061011e565b5060005b8451811015610236578581815181106101c8576101c76105b8565b5b602001015160f81c60f81b8383815181106101e6576101e56105b8565b5b60200101907effffffffffffffffffffffffffffffffffffffffffffffffffffffffffffff1916908160001a905350818061022090610540565b925050808061022e90610540565b9150506101ac565b50819550505050505092915050565b600061025861025384610420565b6103fb565b9050828152602081018484840111156102745761027361061b565b5b61027f8482856104cd565b509392505050565b600082601f83011261029c5761029b610616565b5b81356102ac848260208601610245565b91505092915050565b6000602082840312156102cb576102ca610625565b5b600082013567ffffffffffffffff8111156102e9576102e8610620565b5b6102f584828501610287565b91505092915050565b6000806040838503121561031557610314610625565b5b600083013567ffffffffffffffff81111561033357610332610620565b5b61033f85828601610287565b925050602083013567ffffffffffffffff8111156103605761035f610620565b5b61036c85828601610287565b9150509250929050565b600061038182610451565b61038b818561045c565b935061039b8185602086016104dc565b6103a48161062a565b840191505092915050565b6103b8816104c3565b82525050565b600060208201905081810360008301526103d88184610376565b905092915050565b60006020820190506103f560008301846103af565b92915050565b6000610405610416565b9050610411828261050f565b919050565b6000604051905090565b600067ffffffffffffffff82111561043b5761043a6105e7565b5b6104448261062a565b9050602081019050919050565b600081519050919050565b600082825260208201905092915050565b6000610478826104c3565b9150610483836104c3565b9250827fffffffffffffffffffffffffffffffffffffffffffffffffffffffffffffffff038211156104b8576104b7610589565b5b828201905092915050565b6000819050919050565b82818337600083830152505050565b60005b838110156104fa5780820151818401526020810190506104df565b83811115610509576000848401525b50505050565b6105188261062a565b810181811067ffffffffffffffff82111715610537576105366105e7565b5b80604052505050565b600061054b826104c3565b91507fffffffffffffffffffffffffffffffffffffffffffffffffffffffffffffffff82141561057e5761057d610589565b5b600182019050919050565b7f4e487b7100000000000000000000000000000000000000000000000000000000600052601160045260246000fd5b7f4e487b7100000000000000000000000000000000000000000000000000000000600052603260045260246000fd5b7f4e487b7100000000000000000000000000000000000000000000000000000000600052604160045260246000fd5b600080fd5b600080fd5b600080fd5b600080fd5b6000601f19601f830116905091905056fea2646970667358221220c84ce298e8a1fe3f03733f502ee6df3c3d9785f6d85223e6818e4e3c735c36b564736f6c63430008070033",
					"opcodes": "PUSH1 0x80 PUSH1 0x40 MSTORE CALLVALUE DUP1 ISZERO PUSH2 0x10 JUMPI PUSH1 0x0 DUP1 REVERT JUMPDEST POP PUSH2 0x671 DUP1 PUSH2 0x20 PUSH1 0x0 CODECOPY PUSH1 0x0 RETURN INVALID PUSH1 0x80 PUSH1 0x40 MSTORE CALLVALUE DUP1 ISZERO PUSH2 0x10 JUMPI PUSH1 0x0 DUP1 REVERT JUMPDEST POP PUSH1 0x4 CALLDATASIZE LT PUSH2 0x36 JUMPI PUSH1 0x0 CALLDATALOAD PUSH1 0xE0 SHR DUP1 PUSH4 0x436A66E7 EQ PUSH2 0x3B JUMPI DUP1 PUSH4 0xBD6DF54C EQ PUSH2 0x6B JUMPI JUMPDEST PUSH1 0x0 DUP1 REVERT JUMPDEST PUSH2 0x55 PUSH1 0x4 DUP1 CALLDATASIZE SUB DUP2 ADD SWAP1 PUSH2 0x50 SWAP2 SWAP1 PUSH2 0x2B5 JUMP JUMPDEST PUSH2 0x9B JUMP JUMPDEST PUSH1 0x40 MLOAD PUSH2 0x62 SWAP2 SWAP1 PUSH2 0x3E0 JUMP JUMPDEST PUSH1 0x40 MLOAD DUP1 SWAP2 SUB SWAP1 RETURN JUMPDEST PUSH2 0x85 PUSH1 0x4 DUP1 CALLDATASIZE SUB DUP2 ADD SWAP1 PUSH2 0x80 SWAP2 SWAP1 PUSH2 0x2FE JUMP JUMPDEST PUSH2 0xAB JUMP JUMPDEST PUSH1 0x40 MLOAD PUSH2 0x92 SWAP2 SWAP1 PUSH2 0x3BE JUMP JUMPDEST PUSH1 0x40 MLOAD DUP1 SWAP2 SUB SWAP1 RETURN JUMPDEST PUSH1 0x0 DUP1 DUP3 SWAP1 POP DUP1 MLOAD SWAP2 POP POP SWAP2 SWAP1 POP JUMP JUMPDEST PUSH1 0x60 PUSH1 0x0 DUP4 SWAP1 POP PUSH1 0x0 DUP4 SWAP1 POP PUSH1 0x0 DUP2 MLOAD DUP4 MLOAD PUSH2 0xC7 SWAP2 SWAP1 PUSH2 0x46D JUMP JUMPDEST PUSH8 0xFFFFFFFFFFFFFFFF DUP2 GT ISZERO PUSH2 0xE0 JUMPI PUSH2 0xDF PUSH2 0x5E7 JUMP JUMPDEST JUMPDEST PUSH1 0x40 MLOAD SWAP1 DUP1 DUP3 MSTORE DUP1 PUSH1 0x1F ADD PUSH1 0x1F NOT AND PUSH1 0x20 ADD DUP3 ADD PUSH1 0x40 MSTORE DUP1 ISZERO PUSH2 0x112 JUMPI DUP2 PUSH1 0x20 ADD PUSH1 0x1 DUP3 MUL DUP1 CALLDATASIZE DUP4 CALLDATACOPY DUP1 DUP3 ADD SWAP2 POP POP SWAP1 POP JUMPDEST POP SWAP1 POP PUSH1 0x0 DUP2 SWAP1 POP PUSH1 0x0 DUP1 JUMPDEST DUP6 MLOAD DUP2 LT ISZERO PUSH2 0x1A8 JUMPI DUP6 DUP2 DUP2 MLOAD DUP2 LT PUSH2 0x13A JUMPI PUSH2 0x139 PUSH2 0x5B8 JUMP JUMPDEST JUMPDEST PUSH1 0x20 ADD ADD MLOAD PUSH1 0xF8 SHR PUSH1 0xF8 SHL DUP4 DUP4 DUP2 MLOAD DUP2 LT PUSH2 0x158 JUMPI PUSH2 0x157 PUSH2 0x5B8 JUMP JUMPDEST JUMPDEST PUSH1 0x20 ADD ADD SWAP1 PUSH31 0xFFFFFFFFFFFFFFFFFFFFFFFFFFFFFFFFFFFFFFFFFFFFFFFFFFFFFFFFFFFFFF NOT AND SWAP1 DUP2 PUSH1 0x0 BYTE SWAP1 MSTORE8 POP DUP2 DUP1 PUSH2 0x192 SWAP1 PUSH2 0x540 JUMP JUMPDEST SWAP3 POP POP DUP1 DUP1 PUSH2 0x1A0 SWAP1 PUSH2 0x540 JUMP JUMPDEST SWAP2 POP POP PUSH2 0x11E JUMP JUMPDEST POP PUSH1 0x0 JUMPDEST DUP5 MLOAD DUP2 LT ISZERO PUSH2 0x236 JUMPI DUP6 DUP2 DUP2 MLOAD DUP2 LT PUSH2 0x1C8 JUMPI PUSH2 0x1C7 PUSH2 0x5B8 JUMP JUMPDEST JUMPDEST PUSH1 0x20 ADD ADD MLOAD PUSH1 0xF8 SHR PUSH1 0xF8 SHL DUP4 DUP4 DUP2 MLOAD DUP2 LT PUSH2 0x1E6 JUMPI PUSH2 0x1E5 PUSH2 0x5B8 JUMP JUMPDEST JUMPDEST PUSH1 0x20 ADD ADD SWAP1 PUSH31 0xFFFFFFFFFFFFFFFFFFFFFFFFFFFFFFFFFFFFFFFFFFFFFFFFFFFFFFFFFFFFFF NOT AND SWAP1 DUP2 PUSH1 0x0 BYTE SWAP1 MSTORE8 POP DUP2 DUP1 PUSH2 0x220 SWAP1 PUSH2 0x540 JUMP JUMPDEST SWAP3 POP POP DUP1 DUP1 PUSH2 0x22E SWAP1 PUSH2 0x540 JUMP JUMPDEST SWAP2 POP POP PUSH2 0x1AC JUMP JUMPDEST POP DUP2 SWAP6 POP POP POP POP POP POP SWAP3 SWAP2 POP POP JUMP JUMPDEST PUSH1 0x0 PUSH2 0x258 PUSH2 0x253 DUP5 PUSH2 0x420 JUMP JUMPDEST PUSH2 0x3FB JUMP JUMPDEST SWAP1 POP DUP3 DUP2 MSTORE PUSH1 0x20 DUP2 ADD DUP5 DUP5 DUP5 ADD GT ISZERO PUSH2 0x274 JUMPI PUSH2 0x273 PUSH2 0x61B JUMP JUMPDEST JUMPDEST PUSH2 0x27F DUP5 DUP3 DUP6 PUSH2 0x4CD JUMP JUMPDEST POP SWAP4 SWAP3 POP POP POP JUMP JUMPDEST PUSH1 0x0 DUP3 PUSH1 0x1F DUP4 ADD SLT PUSH2 0x29C JUMPI PUSH2 0x29B PUSH2 0x616 JUMP JUMPDEST JUMPDEST DUP2 CALLDATALOAD PUSH2 0x2AC DUP5 DUP3 PUSH1 0x20 DUP7 ADD PUSH2 0x245 JUMP JUMPDEST SWAP2 POP POP SWAP3 SWAP2 POP POP JUMP JUMPDEST PUSH1 0x0 PUSH1 0x20 DUP3 DUP5 SUB SLT ISZERO PUSH2 0x2CB JUMPI PUSH2 0x2CA PUSH2 0x625 JUMP JUMPDEST JUMPDEST PUSH1 0x0 DUP3 ADD CALLDATALOAD PUSH8 0xFFFFFFFFFFFFFFFF DUP2 GT ISZERO PUSH2 0x2E9 JUMPI PUSH2 0x2E8 PUSH2 0x620 JUMP JUMPDEST JUMPDEST PUSH2 0x2F5 DUP5 DUP3 DUP6 ADD PUSH2 0x287 JUMP JUMPDEST SWAP2 POP POP SWAP3 SWAP2 POP POP JUMP JUMPDEST PUSH1 0x0 DUP1 PUSH1 0x40 DUP4 DUP6 SUB SLT ISZERO PUSH2 0x315 JUMPI PUSH2 0x314 PUSH2 0x625 JUMP JUMPDEST JUMPDEST PUSH1 0x0 DUP4 ADD CALLDATALOAD PUSH8 0xFFFFFFFFFFFFFFFF DUP2 GT ISZERO PUSH2 0x333 JUMPI PUSH2 0x332 PUSH2 0x620 JUMP JUMPDEST JUMPDEST PUSH2 0x33F DUP6 DUP3 DUP7 ADD PUSH2 0x287 JUMP JUMPDEST SWAP3 POP POP PUSH1 0x20 DUP4 ADD CALLDATALOAD PUSH8 0xFFFFFFFFFFFFFFFF DUP2 GT ISZERO PUSH2 0x360 JUMPI PUSH2 0x35F PUSH2 0x620 JUMP JUMPDEST JUMPDEST PUSH2 0x36C DUP6 DUP3 DUP7 ADD PUSH2 0x287 JUMP JUMPDEST SWAP2 POP POP SWAP3 POP SWAP3 SWAP1 POP JUMP JUMPDEST PUSH1 0x0 PUSH2 0x381 DUP3 PUSH2 0x451 JUMP JUMPDEST PUSH2 0x38B DUP2 DUP6 PUSH2 0x45C JUMP JUMPDEST SWAP4 POP PUSH2 0x39B DUP2 DUP6 PUSH1 0x20 DUP7 ADD PUSH2 0x4DC JUMP JUMPDEST PUSH2 0x3A4 DUP2 PUSH2 0x62A JUMP JUMPDEST DUP5 ADD SWAP2 POP POP SWAP3 SWAP2 POP POP JUMP JUMPDEST PUSH2 0x3B8 DUP2 PUSH2 0x4C3 JUMP JUMPDEST DUP3 MSTORE POP POP JUMP JUMPDEST PUSH1 0x0 PUSH1 0x20 DUP3 ADD SWAP1 POP DUP2 DUP2 SUB PUSH1 0x0 DUP4 ADD MSTORE PUSH2 0x3D8 DUP2 DUP5 PUSH2 0x376 JUMP JUMPDEST SWAP1 POP SWAP3 SWAP2 POP POP JUMP JUMPDEST PUSH1 0x0 PUSH1 0x20 DUP3 ADD SWAP1 POP PUSH2 0x3F5 PUSH1 0x0 DUP4 ADD DUP5 PUSH2 0x3AF JUMP JUMPDEST SWAP3 SWAP2 POP POP JUMP JUMPDEST PUSH1 0x0 PUSH2 0x405 PUSH2 0x416 JUMP JUMPDEST SWAP1 POP PUSH2 0x411 DUP3 DUP3 PUSH2 0x50F JUMP JUMPDEST SWAP2 SWAP1 POP JUMP JUMPDEST PUSH1 0x0 PUSH1 0x40 MLOAD SWAP1 POP SWAP1 JUMP JUMPDEST PUSH1 0x0 PUSH8 0xFFFFFFFFFFFFFFFF DUP3 GT ISZERO PUSH2 0x43B JUMPI PUSH2 0x43A PUSH2 0x5E7 JUMP JUMPDEST JUMPDEST PUSH2 0x444 DUP3 PUSH2 0x62A JUMP JUMPDEST SWAP1 POP PUSH1 0x20 DUP2 ADD SWAP1 POP SWAP2 SWAP1 POP JUMP JUMPDEST PUSH1 0x0 DUP2 MLOAD SWAP1 POP SWAP2 SWAP1 POP JUMP JUMPDEST PUSH1 0x0 DUP3 DUP3 MSTORE PUSH1 0x20 DUP3 ADD SWAP1 POP SWAP3 SWAP2 POP POP JUMP JUMPDEST PUSH1 0x0 PUSH2 0x478 DUP3 PUSH2 0x4C3 JUMP JUMPDEST SWAP2 POP PUSH2 0x483 DUP4 PUSH2 0x4C3 JUMP JUMPDEST SWAP3 POP DUP3 PUSH32 0xFFFFFFFFFFFFFFFFFFFFFFFFFFFFFFFFFFFFFFFFFFFFFFFFFFFFFFFFFFFFFFFF SUB DUP3 GT ISZERO PUSH2 0x4B8 JUMPI PUSH2 0x4B7 PUSH2 0x589 JUMP JUMPDEST JUMPDEST DUP3 DUP3 ADD SWAP1 POP SWAP3 SWAP2 POP POP JUMP JUMPDEST PUSH1 0x0 DUP2 SWAP1 POP SWAP2 SWAP1 POP JUMP JUMPDEST DUP3 DUP2 DUP4 CALLDATACOPY PUSH1 0x0 DUP4 DUP4 ADD MSTORE POP POP POP JUMP JUMPDEST PUSH1 0x0 JUMPDEST DUP4 DUP2 LT ISZERO PUSH2 0x4FA JUMPI DUP1 DUP3 ADD MLOAD DUP2 DUP5 ADD MSTORE PUSH1 0x20 DUP2 ADD SWAP1 POP PUSH2 0x4DF JUMP JUMPDEST DUP4 DUP2 GT ISZERO PUSH2 0x509 JUMPI PUSH1 0x0 DUP5 DUP5 ADD MSTORE JUMPDEST POP POP POP POP JUMP JUMPDEST PUSH2 0x518 DUP3 PUSH2 0x62A JUMP JUMPDEST DUP2 ADD DUP2 DUP2 LT PUSH8 0xFFFFFFFFFFFFFFFF DUP3 GT OR ISZERO PUSH2 0x537 JUMPI PUSH2 0x536 PUSH2 0x5E7 JUMP JUMPDEST JUMPDEST DUP1 PUSH1 0x40 MSTORE POP POP POP JUMP JUMPDEST PUSH1 0x0 PUSH2 0x54B DUP3 PUSH2 0x4C3 JUMP JUMPDEST SWAP2 POP PUSH32 0xFFFFFFFFFFFFFFFFFFFFFFFFFFFFFFFFFFFFFFFFFFFFFFFFFFFFFFFFFFFFFFFF DUP3 EQ ISZERO PUSH2 0x57E JUMPI PUSH2 0x57D PUSH2 0x589 JUMP JUMPDEST JUMPDEST PUSH1 0x1 DUP3 ADD SWAP1 POP SWAP2 SWAP1 POP JUMP JUMPDEST PUSH32 0x4E487B7100000000000000000000000000000000000000000000000000000000 PUSH1 0x0 MSTORE PUSH1 0x11 PUSH1 0x4 MSTORE PUSH1 0x24 PUSH1 0x0 REVERT JUMPDEST PUSH32 0x4E487B7100000000000000000000000000000000000000000000000000000000 PUSH1 0x0 MSTORE PUSH1 0x32 PUSH1 0x4 MSTORE PUSH1 0x24 PUSH1 0x0 REVERT JUMPDEST PUSH32 0x4E487B7100000000000000000000000000000000000000000000000000000000 PUSH1 0x0 MSTORE PUSH1 0x41 PUSH1 0x4 MSTORE PUSH1 0x24 PUSH1 0x0 REVERT JUMPDEST PUSH1 0x0 DUP1 REVERT JUMPDEST PUSH1 0x0 DUP1 REVERT JUMPDEST PUSH1 0x0 DUP1 REVERT JUMPDEST PUSH1 0x0 DUP1 REVERT JUMPDEST PUSH1 0x0 PUSH1 0x1F NOT PUSH1 0x1F DUP4 ADD AND SWAP1 POP SWAP2 SWAP1 POP JUMP INVALID LOG2 PUSH5 0x6970667358 0x22 SLT KECCAK256 0xC8 0x4C 0xE2 SWAP9 0xE8 LOG1 INVALID EXTCODEHASH SUB PUSH20 0x3F502EE6DF3C3D9785F6D85223E6818E4E3C735C CALLDATASIZE 0xB5 PUSH5 0x736F6C6343 STOP ADDMOD SMOD STOP CALLER "
				},
				"gasEstimates": {
					"creation": {
						"codeDepositCost": "329800",
						"executionCost": "368",
						"totalCost": "330168"
					},
					"external": {
						"concactenate(string,string)": "infinite",
						"length(string)": "infinite"
					}
				},
				"methodIdentifiers": {
					"concactenate(string,string)": "bd6df54c",
					"length(string)": "436a66e7"
				}
			},
			"storageLayout": {
				"storage": [],
				"types": null
			},
			"userdoc": {
				"kind": "user",
				"methods": {},
				"version": 1
			}
		}
	}
}